{
  "contractName": "VenmoTrans",
  "abi": [
    {
      "anonymous": false,
      "inputs": [
        {
          "indexed": false,
          "internalType": "address",
          "name": "from",
          "type": "address"
        },
        {
          "indexed": false,
          "internalType": "address",
          "name": "reciever",
          "type": "address"
        },
        {
          "indexed": false,
          "internalType": "uint256",
          "name": "amount",
          "type": "uint256"
        },
        {
          "indexed": false,
          "internalType": "string",
          "name": "message",
          "type": "string"
        },
        {
          "indexed": false,
          "internalType": "uint256",
          "name": "timestampd",
          "type": "uint256"
        }
      ],
      "name": "Transfer",
      "type": "event"
    },
    {
      "constant": false,
      "inputs": [
        {
          "internalType": "address payable",
          "name": "reciever",
          "type": "address"
        },
        {
          "internalType": "uint256",
          "name": "amount",
          "type": "uint256"
        },
        {
          "internalType": "string",
          "name": "message",
          "type": "string"
        }
      ],
      "name": "addToBlockchain",
      "outputs": [],
      "payable": false,
      "stateMutability": "nonpayable",
      "type": "function"
    },
    {
      "constant": true,
      "inputs": [],
      "name": "getAllTransactions",
      "outputs": [
        {
          "components": [
            {
              "internalType": "address",
              "name": "sender",
              "type": "address"
            },
            {
              "internalType": "address",
              "name": "reciever",
              "type": "address"
            },
            {
              "internalType": "uint256",
              "name": "amount",
              "type": "uint256"
            },
            {
              "internalType": "string",
              "name": "message",
              "type": "string"
            },
            {
              "internalType": "uint256",
              "name": "timestamp",
              "type": "uint256"
            }
          ],
          "internalType": "struct VenmoTrans.TransactionStruct[]",
          "name": "",
          "type": "tuple[]"
        }
      ],
      "payable": false,
      "stateMutability": "view",
      "type": "function"
    },
    {
      "constant": true,
      "inputs": [],
      "name": "getTransactionCount",
      "outputs": [
        {
          "internalType": "uint256",
          "name": "",
          "type": "uint256"
        }
      ],
      "payable": false,
      "stateMutability": "view",
      "type": "function"
    }
  ],
  "bytecode": "0x608060405234801561001057600080fd5b506109de806100206000396000f3fe608060405234801561001057600080fd5b50600436106100415760003560e01c806327506f53146100465780632e7700f014610064578063eb12da4a14610082575b600080fd5b61004e61009e565b60405161005b919061078f565b60405180910390f35b61006c61025f565b60405161007991906107b1565b60405180910390f35b61009c60048036036100979190810190610521565b610268565b005b60606001805480602002602001604051908101604052809291908181526020016000905b8282101561025657838290600052602060002090600502016040518060a00160405290816000820160009054906101000a900473ffffffffffffffffffffffffffffffffffffffff1673ffffffffffffffffffffffffffffffffffffffff1673ffffffffffffffffffffffffffffffffffffffff1681526020016001820160009054906101000a900473ffffffffffffffffffffffffffffffffffffffff1673ffffffffffffffffffffffffffffffffffffffff1673ffffffffffffffffffffffffffffffffffffffff16815260200160028201548152602001600382018054600181600116156101000203166002900480601f0160208091040260200160405190810160405280929190818152602001828054600181600116156101000203166002900480156102345780601f1061020957610100808354040283529160200191610234565b820191906000526020600020905b81548152906001019060200180831161021757829003601f168201915b50505050508152602001600482015481525050815260200190600101906100c2565b50505050905090565b60008054905090565b6001600080828254019250508190555060016040518060a001604052803373ffffffffffffffffffffffffffffffffffffffff1681526020018573ffffffffffffffffffffffffffffffffffffffff168152602001848152602001838152602001428152509080600181540180825580915050906001820390600052602060002090600502016000909192909190915060008201518160000160006101000a81548173ffffffffffffffffffffffffffffffffffffffff021916908373ffffffffffffffffffffffffffffffffffffffff16021790555060208201518160010160006101000a81548173ffffffffffffffffffffffffffffffffffffffff021916908373ffffffffffffffffffffffffffffffffffffffff1602179055506040820151816002015560608201518160030190805190602001906103ac9291906103fe565b50608082015181600401555050507fc4b32d7ff75a51e487f3cbb5d3202f2efecca1f4c2b987e0039c1d3220b48a8333848484426040516103f1959493929190610735565b60405180910390a1505050565b828054600181600116156101000203166002900490600052602060002090601f016020900481019282601f1061043f57805160ff191683800117855561046d565b8280016001018555821561046d579182015b8281111561046c578251825591602001919060010190610451565b5b50905061047a919061047e565b5090565b6104a091905b8082111561049c576000816000905550600101610484565b5090565b90565b6000813590506104b28161096d565b92915050565b600082601f8301126104c957600080fd5b81356104dc6104d7826107f9565b6107cc565b915080825260208301602083018583830111156104f857600080fd5b61050383828461091a565b50505092915050565b60008135905061051b81610984565b92915050565b60008060006060848603121561053657600080fd5b6000610544868287016104a3565b93505060206105558682870161050c565b925050604084013567ffffffffffffffff81111561057257600080fd5b61057e868287016104b8565b9150509250925092565b600061059483836106a1565b905092915050565b6105a5816108e4565b82525050565b6105b481610896565b82525050565b60006105c582610835565b6105cf8185610863565b9350836020820285016105e185610825565b8060005b8581101561061d57848403895281516105fe8582610588565b945061060983610856565b925060208a019950506001810190506105e5565b50829750879550505050505092915050565b600061063a8261084b565b6106448185610885565b9350610654818560208601610929565b61065d8161095c565b840191505092915050565b600061067382610840565b61067d8185610874565b935061068d818560208601610929565b6106968161095c565b840191505092915050565b600060a0830160008301516106b960008601826105ab565b5060208301516106cc60208601826105ab565b5060408301516106df6040860182610717565b50606083015184820360608601526106f78282610668565b915050608083015161070c6080860182610717565b508091505092915050565b610720816108da565b82525050565b61072f816108da565b82525050565b600060a08201905061074a600083018861059c565b610757602083018761059c565b6107646040830186610726565b8181036060830152610776818561062f565b90506107856080830184610726565b9695505050505050565b600060208201905081810360008301526107a981846105ba565b905092915050565b60006020820190506107c66000830184610726565b92915050565b6000604051905081810181811067ffffffffffffffff821117156107ef57600080fd5b8060405250919050565b600067ffffffffffffffff82111561081057600080fd5b601f19601f8301169050602081019050919050565b6000819050602082019050919050565b600081519050919050565b600081519050919050565b600081519050919050565b6000602082019050919050565b600082825260208201905092915050565b600082825260208201905092915050565b600082825260208201905092915050565b60006108a1826108ba565b9050919050565b60006108b3826108ba565b9050919050565b600073ffffffffffffffffffffffffffffffffffffffff82169050919050565b6000819050919050565b60006108ef826108f6565b9050919050565b600061090182610908565b9050919050565b6000610913826108ba565b9050919050565b82818337600083830152505050565b60005b8381101561094757808201518184015260208101905061092c565b83811115610956576000848401525b50505050565b6000601f19601f8301169050919050565b610976816108a8565b811461098157600080fd5b50565b61098d816108da565b811461099857600080fd5b5056fea365627a7a72315820e389022cdbf5091fd353ba790e6ffeb636a097515ee62fe1730fe8c3690317d36c6578706572696d656e74616cf564736f6c63430005100040",
  "source": "// SPDX-License-Identifier: MIT\r\n\r\npragma experimental ABIEncoderV2;\r\npragma solidity >=0.5.8;\r\n\r\ncontract VenmoTrans {\r\n    uint256 transactionCount;\r\n\r\n    event Transfer(\r\n        address from,\r\n        address reciever,\r\n        uint amount,\r\n        string message,\r\n        uint timestampd\r\n    );\r\n\r\n    struct TransactionStruct {\r\n        address sender;\r\n        address reciever;\r\n        uint amount;\r\n        string message;\r\n        uint256 timestamp;\r\n    }\r\n\r\n    TransactionStruct[] transactions;\r\n\r\n    function addToBlockchain(\r\n        address payable reciever,\r\n        uint amount,\r\n        string memory message\r\n    ) public {\r\n        transactionCount += 1;\r\n        transactions.push(\r\n            TransactionStruct(\r\n                msg.sender,\r\n                reciever,\r\n                amount,\r\n                message,\r\n                block.timestamp\r\n            )\r\n        );\r\n\r\n        emit Transfer(msg.sender, reciever, amount, message, block.timestamp);\r\n    }\r\n\r\n    function getAllTransactions()\r\n        public\r\n        view\r\n        returns (TransactionStruct[] memory)\r\n    {\r\n        return transactions;\r\n    }\r\n\r\n    function getTransactionCount() public view returns (uint) {\r\n        return transactionCount;\r\n    }\r\n}\r\n",
  "sourcePath": "C:\\Users\\hp\\Documents\\kelvin\\venmo\\venmobackend\\contracts\\VenmoTrans.sol",
  "compiler": {
    "name": "solc",
    "version": "0.5.16+commit.9c3226ce.Emscripten.clang"
  },
  "schemaVersion": "3.4.13",
  "updatedAt": "2023-05-19T08:46:40.751Z",
  "networkType": "ethereum",
  "devdoc": {
    "methods": {}
  },
  "userdoc": {
    "methods": {}
  }
}